:020000040800F2
:10000000FC2F0020450A0000190B0000190B00000E
:10001000190B0000190B0000190B0000190B000050
:10002000190B0000190B0000190B0000190B000040
:10003000190B0000190B0000190B0000190B000030
:10004000190B0000190B0000190B0000190B000020
:10005000190B0000190B0000190B0000190B000010
:10006000190B0000190B0000190B0000190B000000
:10007000190B0000190B0000190B0000190B0000F0
:10008000190B0000190B0000190B0000190B0000E0
:10009000190B0000190B0000190B0000190B0000D0
:1000A000190B0000190B0000190B0000190B0000C0
:1000B000190B0000190B0000190B0000190B0000B0
:1000C000190B0000190B0000190B0000190B0000A0
:1000D000190B0000BD090000910A0000190B000077
:1000E000190B0000190B0000190B0000190B000080
:1000F000190B0000190B0000190B0000190B000070
:10010000190B0000190B0000190B0000190B00005F
:10011000190B0000190B0000190B0000190B00004F
:10012000190B0000190B0000190B0000190B00003F
:10013000190B0000190B0000190B0000190B00002F
:10014000190B0000190B0000190B0000190B00001F
:10015000190B0000190B0000190B0000190B00000F
:10016000190B0000190B0000190B0000190B0000FF
:10017000190B0000190B0000190B0000190B0000EF
:08018000190B0000190B00002F
:100A440081B000F06BF800F00BF800F08BF900F0C7
:0E0A5400E7F800F047F9FFF73FFFFEE7FEE787
:1009800081B04FF000094FF0000CBDEB0A0F04DC02
:10099000BDEB0B0F01DBD446EA464BF8049BBBEBE7
:1009A0000A0FFAD1BCEB0A0F05DDE246D9F800B018
:0A09B0000BF1040BF1E701B07047F2
:1008DC0081B0CDF800E0FFF78DFFFFF79DFFFFF72C
:0A08EC0097FFDDF800E001B070474F
:1008000081B0CDF800E013210348FFF711FFDDF8B8
:0C08100000E001B0704700BF8400002031
:1006300081B0CDF800E04FF6FF72914202D14FF049
:10064000FF3003E00022FFF7BFFF0020DDF800E0ED
:0406500001B070473E
:1005C80081B0CDF800E0FFF757FFDDF800E001B09B
:0205D80070476A
:1004800086B0CDF800E0ADF8081001468DF80C20DC
:100490000B4605930191BDF80800FFF7EBFFFFF74E
:1004A000B9FF0199059B18600B1D05930191BDF8DB
:1004B0000800FFF7B9FF0199059B18809DF80C30E3
:1004C00043B90B1D1B889CB20B68A1B21846FFF7FD
:1004D000C5FF07E00B1D1B889CB20B68A1B2184634
:0C04E000FFF7B0FFDDF800E006B0704749
:0C04740081B0C1B20909C8B201B07047E4
:1004140081B08200024989180968084601B0704712
:04042400BC0C00000C
:1004280081B0CDF800E0FFF7D1FE4FF00101814027
:0A0438000846DDF800E001B070474F
:0E01D40081B0C1B201F00F01C8B201B0704796
:10045C0081B0CDF800E04FF04202FFF7BDFEDDF8B1
:06046C0000E001B0704742
:1001E40082B0CDF800E08DB217460646FFF7CAFF8D
:1001F400B5F1FF0F25D13468804B04EA0303336063
:100204007F4B9F4214D1346845F2555344EA0303AB
:100214003360351D2C686FF0FF0304EA03032B6081
:1002240006F208052C68774B44EA03032B60E1E0EF
:10023400422F05D13468714B04EA03033360D9E0DB
:1002440026E0B5F57F4F23D134686E4B04EA0303EF
:1002540033606B4B9F4213D134686B4B44EA030306
:100264003360351D2C686FF47F4304EA03032B606D
:1002740006F208052C68614B44EA03032B60B9E0DD
:10028400422F05D134685F4B04EA03033360B1E0C5
:100294005C4B9D4212D15A4B9F420AD14FF05533C9
:1002A4003360341D0023236006F20804534B23609B
:1002B400A0E0422F02D1002333609BE007F001034A
:1002C4000BB103200AE007F008030BB1022005E09C
:1002D40007F004030BB1012000E000204B4B07EAB8
:1002E40003030BB103210AE007F400730BB10121EE
:1002F40005E007F000030BB1002100E0002107F046
:1003040020030BB1012200E0002207F480730BB13B
:10031400022305E007F080030BB1012300E0002372
:1003240040F2000A01921FFA85F9B846374606469C
:1003340018460A460199BAF1100F5BD24FF0010337
:1003440003FA0AF409EA0403A34250D14FEA4A0427
:100354004FF00303A340DC433B6823403B604FEA78
:100364004A0306FA03F43B6823433B6008F00C039A
:100374003BB307F208054FEA4A044FF00303A340D6
:10038400DC432B6823402B6007F208054FEA4A033D
:1003940002FA03F42B6823432B603D1D1FFA8AF4F1
:1003A4004FF00103A340DC432B6823402B603D1D29
:1003B4001FFA8AF48BB203FA04F4A4B22B68234321
:1003C4002B6007F20C051FFA8AF35C00A4B24FF00D
:1003D4000303A340DC432B6823402B6007F20C0586
:1003E4004FEA4A0300FA03F42B6823432B600AF113
:1003F400010AA0E7DDF800E002B070470000FFFF4B
:1004040014000800FFFF0000000055550008080014
:1001880081B04FF000030D4900EA010205E00120AB
:100198000DE002200BE0202009E0B2F1904FF6D0EC
:1001A80007498A42F5D007498A42F4D018464304E1
:1001B800054A11681943116001B0704700FCFFFF40
:0C01C8000004004800140048141002401D
:1004440081B0CDF800E0034AFFF7CAFEDDF800E012
:0804540001B07047140008001C
:0608240081B001B0704735
:06081C0081B001B070473D
:10096C0081B01CF8019B0BF8019BBBEB0A0FF8D173
:04097C0001B070470F
:100B200081B0CDF800E0364B364A374C37494BF6AA
:100B30008030814206D93648006840F002013448CE
:100B4000016011E045F6C050814206D93048006886
:100B500040F001012E48016006E02D4801686FF069
:100B6000070001402A480160FFF7C6FE29480460DB
:100B700029480260294801686FF0F000034001F045
:100B8000F0000343264803EA00012448016003F013
:100B9000010040B119462148006800F00200002819
:100BA00000D1F8E700E0194601F4803038B11B4865
:100BB000006800F40030002800D1F8E7FFE701F0FA
:100BC000807070B11548006840F080711348016072
:100BD00011461248006800F0007000B9F9E70A46B3
:100BE000FFE70D48006800F00C01900000F00C00D9
:100BF000814200D0F5E7DDF800E001B0704700BFAA
:100C0000810000000000000000000000E803000078
:100C1000002002402C10024004100240001002404C
:040C2000FFFF0F00C3
:1008F80081B01748006840F00101154801601548AB
:10090800006800F4FE0113480160114801681248AC
:1009180001400F4801600E4801686FF480200140D3
:100928000B4801600B4801686FF4FE00014009485C
:1009380001600A4801686FF00F0001400748016034
:100948000748006800F000010548016001B07047E1
:100958000010024004100240FFFFF6FE2C10024077
:040968003010024009
:100C240081B002490248016001B07047E803000046
:040C34008C00002010
:080B180081B0FEE701B0704757
:100A640081B04EF68850CEF20000016841F4700166
:100A7400016000BF00BF00BF00BFF1EE100A40F4E8
:0A0A84004000E1EE100A01B07047D7
:100CE80000B5DFF814B0DFF814A0DFF814C0FFF780
:100CF80039FE00BD704700BF0000002084000020BE
:040D0800380C0000A3
:100D680000B5DFF810B0DFF810A0FFF705FE00BDF2
:0C0D7800704700BF00000020A800002011
:100A900030B481B0CDF800E01A48006800F02000C2
:100AA00080B11948006800F0200010B1012040B268
:100AB00001E0002040B228B1144800680021144C25
:100AC0002468A0470F48006800F08000A8B10E48D5
:100AD000006800F0800010B1012040B201E0002069
:100AE00040B250B10B49086840F001000860074867
:100AF00000680121064C2468A047DDF800E001B041
:100B000030BC70471C440040004400409800002066
:080B1000900000202044004089
:1008440083B0CDF800E08DF8081001909DF80820E1
:10085400D2B9019A121D20321046FFF723FF48B186
:1008640000210198FFF72CFF019A02F249030022AC
:100874001A702CE00198FFF7F5FE019A121D203240
:10088400C1B21046FFF766FF9DF80820012A1ED169
:10089400019A121D0C321046FFF792FFC1B2019863
:1008A400FFF77CFF019A4832127882B1019A121D37
:1008B4000C321046FFF7B8FF48B101210198FFF749
:1008C400FFFE019A02F2480300221A70FFE7DDF8E6
:0608D40000E003B07047D4
:1006A80081B000F208010A68011D09688A4240F217
:0C06B800000100D10121C8B201B0704760
:1006C40082B0CDF800E0CDB2026813681F4A13600F
:1006D4000068FFF781FF1E4A1060026810460EE0B2
:1006E40003686FF0200203EA020202600CE0036870
:1006F4006FF0800203EA0202026005E004E0002DCC
:10070400EED0012DF3D0F9E7026802F02002CAB955
:10071400026802F08002AAB90D4A1268121D019201
:1007240008E03520FFF794FF0CE03620FFF790FF38
:1007340008E007E0019B1A88002AF2D01A88012AEF
:10074400F3D0F6E7DDF800E002B07047A000002027
:040754009C000020E5
:1005DC0081B0022211490A70D3B2DAB2591ECCB2E0
:1005EC009AB1016809680B68242101FB04F20C49DB
:1005FC00891809688B4206D1242101FB04F20849B1
:10060C008918084608E0E3B2E7E704490A78242190
:10061C004A4303498918084601B07047A4000020DA
:04062C001800002092
:1006540081B0CDF800E0FFF747FFDDF800E001B01E
:020664007047DD
:1004EC0081B020E02E4B1A686FF4803102EA0101D2
:1004FC00196021E02B4B1A686FF4003102EA0101FC
:10050C00196019E0284B1A686FF4802102EA010186
:10051C00196011E0254B1A686FF0020102EA010123
:10052C00196009E008E00428DCD00528E2D0062890
:10053C00E8D00F28EED0F5E750280ED3A0F210012A
:10054C0009B201F01F0212B24FF0010101FA02F3DD
:10055C00174A11681943116020E030280ED3A0F21D
:10056C00100109B201F01F0212B24FF0010101FAA1
:10057C0002F3104A1168194311600FE010280DD3D3
:10058C00A0F2100109B201F01F0212B24FF00101EA
:10059C0001FA02F3084A11681943116001B070475F
:1005AC0024ED00E024ED00E024ED00E010E000E09C
:0C05BC0088E100E084E100E080E100E064
:1006680081B0CDF800E00068FFF7B4FF0B490860DF
:10067800016808461C31096801F0080129B100F237
:100688002002116841F00801116000F22401096894
:1006980088B2DDF800E001B0704700BF9C00002080
:1007580081B000F208021368021D1268934201D1A9
:10076800002016E000F20C0213680268D21811701B
:1007780000F20C052A68541C021D1368B4FBF3F23E
:1007880003FB12422A6000F208031A68521C1A601E
:06079800012001B07047D2
:1007C40082B000F208010968002900D9FFE700F2AD
:1007D40010042268016889180978CDB2531C011DE0
:1007E4000A68B3FBF2F102FB1131216000F2080246
:0C07F4001168491E1160E8B202B07047A5
:1007A00081B0CDF800E08DB20068FFF717FF044A72
:1007B0001060026828321560DDF800E001B0704773
:0407C0009C00002079
:10082C0081B000F208010968002940F2000100D1F2
:08083C000121C8B201B07047B0
:1009BC0030B481B0CDF800E01A48006800F0200097
:1009CC0080B11948006800F0200010B1012040B23D
:1009DC0001E0002040B228B1144800680021144CFA
:1009EC002468A0470F48006800F08000A8B10E48AA
:1009FC00006800F0800010B1012040B201E000203E
:100A0C0040B250B10B49086840F00100086007483B
:100A1C0000680121064C2468A047DDF800E001B015
:100A2C0030BC70471C380140003801409400002055
:080A3C00900000202038014069
:100C380000000000000000000000000000000000AC
:080C48000000000000000000A4
:100C50000038014000000000FFFF0000000000001D
:100C6000FFFF00000000000000C2010000000000C3
:100C7000000101000044004001000000FFFF0000EF
:100C800000000000FFFF00000000000000C20100A3
:100C90000000000000010100FFFFFFFFFFFF000058
:100CA000FFFF000000000000FFFF00000000000048
:0C0CB0000000000000000000FFFFFF003B
:100CBC00000000480004004800080048000C0048F0
:100CCC00001000480014004800180048001C0048A0
:0C0CDC000000000000000000000000000C
:00000001FF
